:020000020000FC
:020000000EC030
:10001C004CC00FE50DBF08E00EBF00E00ABB65D079
:10002C006DD00AE0C02E06E0D02E02E0E02E04E0F7
:10003C00F02E772466245524442433242224BB2414
:10004C00AA24992488240FEF07BB08BB01E80CB93C
:10005C0000C0FFCFEAE2F1E0022DE00F149121D0B5
:10006C00EAE2F1E0032DE00F14911BD0EAE2F1E09B
:10007C00042DE00F149115D0EAE2F1E0052DE00F0C
:10008C0014910FD0EAE2F1E0062DE00F149109D0A3
:10009C00EAE2F1E0072DE00F149103D012E001D059
:1000AC0008951CB95E9BFECF0895072D009573949F
:1000BC007C14C9F4772463946D14A9F466245394C6
:1000CC005C1489F4552443944D1469F444243394FA
:1000DC003F1411F42E1429F03C1429F433242394E6
:1000EC0002C022243324B6DF189500E000BD03E2E1
:1000FC0009B906E800BD08E10AB9089508EA0BBD84
:10010C0000EC0ABD0CE00EBD00E109BF7894089527
:10011C002CE033273A95F1F72A95D9F708957724EF
:08012C005D6D2E6A7B257F6FDB
:00000001FF
