:020000020000FC
:020000000EC030
:10001C003AC00FE50DBF08E00EBF0FEF07BB0FEFA7
:10002C0008BB00E00ABB30D038D041D000C001D0B2
:10003C00FECFE8E3F1E0022DE00F149121D0E8E3CC
:10004C00F1E0032DE00F14911BD0E8E3F1E0042D57
:10005C00E00F149115D0E8E3F1E0052DE00F1491B9
:10006C000FD0E8E3F1E0062DE00F149109D0E8E39E
:10007C00F1E0072DE00F149103D016E001D00895A4
:10008C001CB94DD00895189500E000BD03E209B9E4
:10009C0006E800BD08E10AB9089508EA0BBD00ECBA
:1000AC000ABD0CE00EBD00E109BF7894089509D09B
:1000BC0018E214D01EE012D011E010D016E00ED0D1
:1000CC00089510E325D02BD010E322D028D010E3D4
:1000DC001FD025D010E21CD022D008951F93107F82
:1000EC0017D01F911295107F13D019D00895159128
:1000FC001F3F11F002D0FBCF08951F93107F1860A3
:10010C0007D01F911295107F186002D008D0089567
:10011C0012BB146012BB1B7F12BB01D008952CE0E4
:10012C0033273A95F1F72A95D9F7089577245D6D21
:06013C002E6A7B257F6F97
:00000001FF
