:020000020000FC
:1000000000C00FE50DBF08E00EBF0FEF07BB0FEFFD
:1000100008BB00E00ABB02D000C0FFCF09D018E245
:1000200014D01EE012D011E010D016E00ED00895CA
:1000300010E325D02BD010E322D028D010E31FD01E
:1000400025D010E21CD022D008951F93107F17D026
:100050001F911295107F13D019D0089515911F3F4D
:1000600011F002D0FBCF08951F93107F186007D0C6
:100070001F911295107F186002D008D0089512BB0E
:10008000146012BB1B7F12BB01D008952CE03327F4
:0A0090003A95F1F72A95D9F7089583
:00000001FF
