:020000020000FC
:020000000EC030
:10001C0065C000E0202E01E0302E02E0402E03E00F
:10002C00502E04E0602E05E0702E0FE50DBF08E0A9
:10003C000EBF0FEF07BB0FEF08BB00E00ABB4FD0A2
:10004C0057D060D000C020D095D094D093D092D00F
:10005C0091D090D08FD08ED08DD08CD08BD08AD0A8
:10006C0089D088D087D086D085D084D083D082D0D8
:10007C0081D080D07FD07ED07DD07CD07BD07AD008
:10008C0079D078D077D0DFCFEEE8F1E0022DE00F19
:10009C00149121D0EEE8F1E0032DE00F14911BD068
:1000AC00EEE8F1E0042DE00F149115D0EEE8F1E04C
:1000BC00052DE00F14910FD0EEE8F1E0062DE00FC6
:1000CC00149109D0EEE8F1E0072DE00F149103D064
:1000DC0012E001D008951CB94DD00895189500E098
:1000EC0000BD03E209B906E800BD08E10AB90895AC
:1000FC0008EA0BBD00EC0ABD0CE00EBD00E109BF27
:10010C007894089509D018E214D01EE012D011E0B2
:10011C0010D016E00ED0089510E325D02BD010E3AC
:10012C0022D028D010E31FD025D010E21CD022D032
:10013C0008951F93107F17D01F911295107F13D025
:10014C0019D0089515911F3F11F002D0FBCF0895DF
:10015C001F93107F186007D01F911295107F1860A5
:10016C0002D008D0089512BB146012BB1B7F12BBC7
:10017C0001D008952CE033273A95F1F72A95D9F759
:0C018C00089577245D6D2E6A7B257F6F3F
:00000001FF
