:020000020000FC
:020000000EC030
:10001C0040C00FE50DBF08E00EBF0FEF0FEF00E083
:10002C000ABB55D05DD00AE0C02E07E0D02E02E00E
:10003C00E02E04E0F02E5ED000C001D0FECFEEE743
:10004C00F1E0022DE00F149121D0EEE7F1E0032D49
:10005C00E00F14911BD0EEE7F1E0042DE00F1491AA
:10006C0015D0EEE7F1E0052DE00F14910FD0EEE77F
:10007C00F1E0062DE00F149109D0EEE7F1E0072D29
:10008C00E00F149103D016E001D008951CB96AD08A
:10009C00089573947C14C9F4772463946D14A9F4B3
:1000AC00662453945C1489F4552443944D1469F4D8
:1000BC00442433943F1411F42E1429F03C1429F4E5
:1000CC003324239402C022243324B9DF189500E092
:1000DC0000BD03E209B906E800BD08E10AB90895BC
:1000EC0008EA0BBD00EC0ABD0CE00EBD00E109BF37
:1000FC007894089509D018E214D01EE012D011E0C3
:10010C0010D016E00ED0089510E325D02BD010E3BC
:10011C0022D028D010E31FD025D010E21CD022D042
:10012C0008951F93107F17D01F911295107F13D035
:10013C0019D0089515911F3F11F002D0FBCF0895EF
:10014C001F93107F186007D01F911295107F1860B5
:10015C0002D008D0089512BB146012BB1B7F12BBD7
:10016C0001D008952CE033273A95F1F72A95D9F769
:0C017C00089577245D6D2E6A7B257F6F4F
:00000001FF
