:020000020000FC
:020000000EC030
:10001C006AC01FE51DBF18E01EBF1AE0C12E16E016
:10002C00D12E12E0E12E14E0F12E77246624552413
:10003C00442433242224BB24AA249924882444272E
:10004C005AD06CD020E82DD006E030E003D05CD044
:10005C00FFCF0895EEE2F1E0122DE10F249121D0B3
:10006C00EEE2F1E0132DE10F24911BD0EEE2F1E072
:10007C00142DE10F249115D0EEE2F1E0152DE10FD6
:10008C0024910FD0EEE2F1E0162DE10F249109D06E
:10009C00EEE2F1E0172DE10F249103D0202F01D0D7
:1000AC0008952CB95D9BFECF089573947C14C9F40C
:1000BC00772463946D14A9F4662453945C1489F426
:1000CC00552443944D1469F4442433943C1419F48A
:1000DC003324239406C03F1421F42E1411F433243A
:1000EC002224B8DF089531FD05C04395423011F448
:1000FC004427DBDF189510E010BD13E219B916E8A0
:10010C0010BD18E11AB9089514E51BBD10E61ABD0F
:10011C001CE01EBD10E119BF789408951CEF1ABBAA
:0C012C00089577245D6D2E6B7B257F6F9E
:00000001FF
